{
  "contractName": "MusicStreamingRevenue",
  "abi": [
    {
      "inputs": [
        {
          "internalType": "address",
          "name": "_artist",
          "type": "address"
        },
        {
          "internalType": "address",
          "name": "_platform",
          "type": "address"
        },
        {
          "internalType": "uint256",
          "name": "_platformShareBasisPoints",
          "type": "uint256"
        }
      ],
      "stateMutability": "nonpayable",
      "type": "constructor"
    },
    {
      "anonymous": false,
      "inputs": [
        {
          "indexed": true,
          "internalType": "address",
          "name": "to",
          "type": "address"
        },
        {
          "indexed": false,
          "internalType": "uint256",
          "name": "amount",
          "type": "uint256"
        }
      ],
      "name": "PaymentDistributed",
      "type": "event"
    },
    {
      "anonymous": false,
      "inputs": [
        {
          "indexed": true,
          "internalType": "address",
          "name": "from",
          "type": "address"
        },
        {
          "indexed": false,
          "internalType": "uint256",
          "name": "amount",
          "type": "uint256"
        }
      ],
      "name": "PaymentReceived",
      "type": "event"
    },
    {
      "inputs": [],
      "name": "artist",
      "outputs": [
        {
          "internalType": "address",
          "name": "",
          "type": "address"
        }
      ],
      "stateMutability": "view",
      "type": "function",
      "constant": true
    },
    {
      "inputs": [
        {
          "internalType": "address",
          "name": "",
          "type": "address"
        }
      ],
      "name": "collaborators",
      "outputs": [
        {
          "internalType": "uint256",
          "name": "",
          "type": "uint256"
        }
      ],
      "stateMutability": "view",
      "type": "function",
      "constant": true
    },
    {
      "inputs": [],
      "name": "platform",
      "outputs": [
        {
          "internalType": "address",
          "name": "",
          "type": "address"
        }
      ],
      "stateMutability": "view",
      "type": "function",
      "constant": true
    },
    {
      "inputs": [],
      "name": "platformShare",
      "outputs": [
        {
          "internalType": "uint256",
          "name": "",
          "type": "uint256"
        }
      ],
      "stateMutability": "view",
      "type": "function",
      "constant": true
    },
    {
      "inputs": [],
      "name": "totalShares",
      "outputs": [
        {
          "internalType": "uint256",
          "name": "",
          "type": "uint256"
        }
      ],
      "stateMutability": "view",
      "type": "function",
      "constant": true
    },
    {
      "stateMutability": "payable",
      "type": "receive",
      "payable": true
    },
    {
      "inputs": [
        {
          "internalType": "address",
          "name": "collaborator",
          "type": "address"
        },
        {
          "internalType": "uint256",
          "name": "share",
          "type": "uint256"
        }
      ],
      "name": "addCollaborator",
      "outputs": [],
      "stateMutability": "nonpayable",
      "type": "function"
    },
    {
      "inputs": [],
      "name": "getCollaborators",
      "outputs": [
        {
          "internalType": "address[]",
          "name": "",
          "type": "address[]"
        }
      ],
      "stateMutability": "view",
      "type": "function",
      "constant": true
    }
  ],
  "bytecode": "0x608060405234801562000010575f80fd5b506040516200105938038062001059833981810160405281019062000036919062000162565b825f806101000a81548173ffffffffffffffffffffffffffffffffffffffff021916908373ffffffffffffffffffffffffffffffffffffffff1602179055508160015f6101000a81548173ffffffffffffffffffffffffffffffffffffffff021916908373ffffffffffffffffffffffffffffffffffffffff16021790555080600481905550505050620001bb565b5f80fd5b5f73ffffffffffffffffffffffffffffffffffffffff82169050919050565b5f620000f482620000c9565b9050919050565b6200010681620000e8565b811462000111575f80fd5b50565b5f815190506200012481620000fb565b92915050565b5f819050919050565b6200013e816200012a565b811462000149575f80fd5b50565b5f815190506200015c8162000133565b92915050565b5f805f606084860312156200017c576200017b620000c5565b5b5f6200018b8682870162000114565b93505060206200019e8682870162000114565b9250506040620001b1868287016200014c565b9150509250925092565b610e9080620001c95f395ff3fe608060405260043610610073575f3560e01c806354a33f0e1161004d57806354a33f0e1461015357806398d15e131461017b578063b9f13be0146101a5578063ffad0fc6146101e1576100d1565b80633a98ef39146100d557806343bc1612146100ff5780634bde38c814610129576100d1565b366100d1573373ffffffffffffffffffffffffffffffffffffffff167f6ef95f06320e7a25a04a175ca677b7052bdd97131872c2192525a629f51be770346040516100be91906108d6565b60405180910390a26100cf3461020b565b005b5f80fd5b3480156100e0575f80fd5b506100e9610550565b6040516100f691906108d6565b60405180910390f35b34801561010a575f80fd5b50610113610556565b604051610120919061092e565b60405180910390f35b348015610134575f80fd5b5061013d610579565b60405161014a919061092e565b60405180910390f35b34801561015e575f80fd5b506101796004803603810190610174919061099f565b61059e565b005b348015610186575f80fd5b5061018f610818565b60405161019c91906108d6565b60405180910390f35b3480156101b0575f80fd5b506101cb60048036038101906101c691906109dd565b61081e565b6040516101d891906108d6565b60405180910390f35b3480156101ec575f80fd5b506101f5610833565b6040516102029190610abf565b60405180910390f35b5f6127106004548361021d9190610b0c565b6102279190610b7a565b905060015f9054906101000a900473ffffffffffffffffffffffffffffffffffffffff1673ffffffffffffffffffffffffffffffffffffffff166108fc8290811502906040515f60405180830381858888f1935050505015801561028d573d5f803e3d5ffd5b5060015f9054906101000a900473ffffffffffffffffffffffffffffffffffffffff1673ffffffffffffffffffffffffffffffffffffffff167f59d9f8b94d1de65b8eeb1b14e24d5d70c2782e96b3abef17ba687f3ee33a754a826040516102f591906108d6565b60405180910390a25f818361030a9190610baa565b90505f805b600380549050811015610469575f6003828154811061033157610330610bdd565b5b905f5260205f20015f9054906101000a900473ffffffffffffffffffffffffffffffffffffffff1690505f60055460025f8473ffffffffffffffffffffffffffffffffffffffff1673ffffffffffffffffffffffffffffffffffffffff1681526020019081526020015f2054866103a89190610b0c565b6103b29190610b7a565b905080846103c09190610c0a565b93508173ffffffffffffffffffffffffffffffffffffffff166108fc8290811502906040515f60405180830381858888f19350505050158015610405573d5f803e3d5ffd5b508173ffffffffffffffffffffffffffffffffffffffff167f59d9f8b94d1de65b8eeb1b14e24d5d70c2782e96b3abef17ba687f3ee33a754a8260405161044c91906108d6565b60405180910390a25050808061046190610c3d565b91505061030f565b505f81836104779190610baa565b90505f8054906101000a900473ffffffffffffffffffffffffffffffffffffffff1673ffffffffffffffffffffffffffffffffffffffff166108fc8290811502906040515f60405180830381858888f193505050501580156104db573d5f803e3d5ffd5b505f8054906101000a900473ffffffffffffffffffffffffffffffffffffffff1673ffffffffffffffffffffffffffffffffffffffff167f59d9f8b94d1de65b8eeb1b14e24d5d70c2782e96b3abef17ba687f3ee33a754a8260405161054191906108d6565b60405180910390a25050505050565b60055481565b5f8054906101000a900473ffffffffffffffffffffffffffffffffffffffff1681565b60015f9054906101000a900473ffffffffffffffffffffffffffffffffffffffff1681565b5f8054906101000a900473ffffffffffffffffffffffffffffffffffffffff1673ffffffffffffffffffffffffffffffffffffffff163373ffffffffffffffffffffffffffffffffffffffff161461062b576040517f08c379a000000000000000000000000000000000000000000000000000000000815260040161062290610d04565b60405180910390fd5b5f73ffffffffffffffffffffffffffffffffffffffff168273ffffffffffffffffffffffffffffffffffffffff1603610699576040517f08c379a000000000000000000000000000000000000000000000000000000000815260040161069090610d6c565b60405180910390fd5b5f81116106db576040517f08c379a00000000000000000000000000000000000000000000000000000000081526004016106d290610dd4565b60405180910390fd5b5f60025f8473ffffffffffffffffffffffffffffffffffffffff1673ffffffffffffffffffffffffffffffffffffffff1681526020019081526020015f20541461075a576040517f08c379a000000000000000000000000000000000000000000000000000000000815260040161075190610e3c565b60405180910390fd5b8060025f8473ffffffffffffffffffffffffffffffffffffffff1673ffffffffffffffffffffffffffffffffffffffff1681526020019081526020015f2081905550600382908060018154018082558091505060019003905f5260205f20015f9091909190916101000a81548173ffffffffffffffffffffffffffffffffffffffff021916908373ffffffffffffffffffffffffffffffffffffffff1602179055508060055f82825461080d9190610c0a565b925050819055505050565b60045481565b6002602052805f5260405f205f915090505481565b606060038054806020026020016040519081016040528092919081815260200182805480156108b457602002820191905f5260205f20905b815f9054906101000a900473ffffffffffffffffffffffffffffffffffffffff1673ffffffffffffffffffffffffffffffffffffffff168152602001906001019080831161086b575b5050505050905090565b5f819050919050565b6108d0816108be565b82525050565b5f6020820190506108e95f8301846108c7565b92915050565b5f73ffffffffffffffffffffffffffffffffffffffff82169050919050565b5f610918826108ef565b9050919050565b6109288161090e565b82525050565b5f6020820190506109415f83018461091f565b92915050565b5f80fd5b6109548161090e565b811461095e575f80fd5b50565b5f8135905061096f8161094b565b92915050565b61097e816108be565b8114610988575f80fd5b50565b5f8135905061099981610975565b92915050565b5f80604083850312156109b5576109b4610947565b5b5f6109c285828601610961565b92505060206109d38582860161098b565b9150509250929050565b5f602082840312156109f2576109f1610947565b5b5f6109ff84828501610961565b91505092915050565b5f81519050919050565b5f82825260208201905092915050565b5f819050602082019050919050565b610a3a8161090e565b82525050565b5f610a4b8383610a31565b60208301905092915050565b5f602082019050919050565b5f610a6d82610a08565b610a778185610a12565b9350610a8283610a22565b805f5b83811015610ab2578151610a998882610a40565b9750610aa483610a57565b925050600181019050610a85565b5085935050505092915050565b5f6020820190508181035f830152610ad78184610a63565b905092915050565b7f4e487b71000000000000000000000000000000000000000000000000000000005f52601160045260245ffd5b5f610b16826108be565b9150610b21836108be565b9250828202610b2f816108be565b91508282048414831517610b4657610b45610adf565b5b5092915050565b7f4e487b71000000000000000000000000000000000000000000000000000000005f52601260045260245ffd5b5f610b84826108be565b9150610b8f836108be565b925082610b9f57610b9e610b4d565b5b828204905092915050565b5f610bb4826108be565b9150610bbf836108be565b9250828203905081811115610bd757610bd6610adf565b5b92915050565b7f4e487b71000000000000000000000000000000000000000000000000000000005f52603260045260245ffd5b5f610c14826108be565b9150610c1f836108be565b9250828201905080821115610c3757610c36610adf565b5b92915050565b5f610c47826108be565b91507fffffffffffffffffffffffffffffffffffffffffffffffffffffffffffffffff8203610c7957610c78610adf565b5b600182019050919050565b5f82825260208201905092915050565b7f4f6e6c7920746865206172746973742063616e20706572666f726d20746869735f8201527f20616374696f6e00000000000000000000000000000000000000000000000000602082015250565b5f610cee602783610c84565b9150610cf982610c94565b604082019050919050565b5f6020820190508181035f830152610d1b81610ce2565b9050919050565b7f496e76616c696420636f6c6c61626f7261746f722061646472657373000000005f82015250565b5f610d56601c83610c84565b9150610d6182610d22565b602082019050919050565b5f6020820190508181035f830152610d8381610d4a565b9050919050565b7f5368617265206d7573742062652067726561746572207468616e2030000000005f82015250565b5f610dbe601c83610c84565b9150610dc982610d8a565b602082019050919050565b5f6020820190508181035f830152610deb81610db2565b9050919050565b7f436f6c6c61626f7261746f7220616c72656164792065786973747300000000005f82015250565b5f610e26601b83610c84565b9150610e3182610df2565b602082019050919050565b5f6020820190508181035f830152610e5381610e1a565b905091905056fea2646970667358221220c4582ca2636451512a5e81db52f5d72e582c5eea1d37441ed102ded859b8836864736f6c63430008150033",
  "immutableReferences": {},
  "source": "// SPDX-License-Identifier: MIT\npragma solidity ^0.8.0;\n\ncontract MusicStreamingRevenue {\n    address public artist;\n    address public platform;\n    mapping(address => uint256) public collaborators; // Shares for collaborators\n    address[] private collaboratorList; // Array to store collaborator addresses\n    uint256 public platformShare; // Percentage in basis points (e.g., 500 = 5%)\n    uint256 public totalShares; // Total shares excluding platform\n\n    event PaymentReceived(address indexed from, uint256 amount);\n    event PaymentDistributed(address indexed to, uint256 amount);\n\n    modifier onlyArtist() {\n        require(\n            msg.sender == artist,\n            \"Only the artist can perform this action\"\n        );\n        _;\n    }\n\n    constructor(\n        address _artist,\n        address _platform,\n        uint256 _platformShareBasisPoints\n    ) {\n        artist = _artist;\n        platform = _platform;\n        platformShare = _platformShareBasisPoints;\n    }\n\n    // Add a collaborator and assign a share\n    function addCollaborator(\n        address collaborator,\n        uint256 share\n    ) external onlyArtist {\n        require(collaborator != address(0), \"Invalid collaborator address\");\n        require(share > 0, \"Share must be greater than 0\");\n        require(\n            collaborators[collaborator] == 0,\n            \"Collaborator already exists\"\n        );\n\n        collaborators[collaborator] = share;\n        collaboratorList.push(collaborator); // Store the collaborator in the list\n        totalShares += share;\n    }\n\n    receive() external payable {\n        emit PaymentReceived(msg.sender, msg.value);\n        _distributePayment(msg.value);\n    }\n\n    function _distributePayment(uint256 amount) internal {\n        // Platform's share\n        uint256 platformAmount = (amount * platformShare) / 10000;\n        payable(platform).transfer(platformAmount);\n        emit PaymentDistributed(platform, platformAmount);\n\n        uint256 remaining = amount - platformAmount;\n\n        // Distribute to collaborators\n        uint256 totalCollaboratorsShare = 0;\n        for (uint256 i = 0; i < collaboratorList.length; i++) {\n            address collaboratorAddress = collaboratorList[i];\n            uint256 collaboratorAmount = (remaining *\n                collaborators[collaboratorAddress]) / totalShares;\n            totalCollaboratorsShare += collaboratorAmount;\n\n            payable(collaboratorAddress).transfer(collaboratorAmount);\n            emit PaymentDistributed(collaboratorAddress, collaboratorAmount);\n        }\n\n        // Remaining amount to artist\n        uint256 artistAmount = remaining - totalCollaboratorsShare;\n        payable(artist).transfer(artistAmount);\n        emit PaymentDistributed(artist, artistAmount);\n    }\n\n    function getCollaborators() external view returns (address[] memory) {\n        return collaboratorList;\n    }\n}\n",
  "sourcePath": "/home/kazimirov/Documents/University/sem-V/blockchain/contracts/MusicStreamingRevenue.sol",
  "compiler": {
    "name": "solc",
    "version": "0.8.21+commit.d9974bed.Emscripten.clang"
  },
  "schemaVersion": "3.4.16",
  "updatedAt": "2024-11-27T18:56:43.346Z",
  "networkType": "ethereum",
  "devdoc": {
    "kind": "dev",
    "methods": {},
    "version": 1
  },
  "userdoc": {
    "kind": "user",
    "methods": {},
    "version": 1
  }
}